:1000000009C016C015C026C013C012C011C010C050
:100010000FC00EC011241FBECFE9CDBF20E0A0E667
:10002000B0E001C01D92A236B207E1F72AD045C068
:10003000E7CF1FBC84E083BF12BE16BE19BC82E0AE
:1000400089BF1BBE15BE16B878941092610010923D
:10005000600008951F920F920FB60F9211248F9394
:100060009F93809160009091610001969093610050
:10007000809360009F918F910F900FBE0F901F9003
:100080001895F89480E886BD16BC8AE187BB18BA3B
:10009000D0DF9AE120916000309161002535324235
:1000A000C8F382B78834B0F388B3892788BB12BEFF
:0E00B0001092610010926000EDCFF894FFCF27
:00000001FF
